{
  "contractName": "PedersenCommitment",
  "abi": [
    {
      "inputs": [],
      "name": "AA",
      "outputs": [
        {
          "internalType": "uint256",
          "name": "",
          "type": "uint256"
        }
      ],
      "stateMutability": "view",
      "type": "function"
    },
    {
      "inputs": [],
      "name": "BB",
      "outputs": [
        {
          "internalType": "uint256",
          "name": "",
          "type": "uint256"
        }
      ],
      "stateMutability": "view",
      "type": "function"
    },
    {
      "inputs": [],
      "name": "PP",
      "outputs": [
        {
          "internalType": "uint256",
          "name": "",
          "type": "uint256"
        }
      ],
      "stateMutability": "view",
      "type": "function"
    },
    {
      "inputs": [
        {
          "internalType": "uint256",
          "name": "r",
          "type": "uint256"
        },
        {
          "internalType": "uint256",
          "name": "b",
          "type": "uint256"
        }
      ],
      "name": "createCommitment",
      "outputs": [
        {
          "internalType": "bytes32[2]",
          "name": "c_affine_bytes",
          "type": "bytes32[2]"
        }
      ],
      "stateMutability": "pure",
      "type": "function"
    },
    {
      "inputs": [
        {
          "internalType": "uint256[2]",
          "name": "c",
          "type": "uint256[2]"
        },
        {
          "internalType": "uint256",
          "name": "r",
          "type": "uint256"
        },
        {
          "internalType": "uint256",
          "name": "b",
          "type": "uint256"
        }
      ],
      "name": "openCommitment",
      "outputs": [
        {
          "internalType": "bool",
          "name": "",
          "type": "bool"
        }
      ],
      "stateMutability": "pure",
      "type": "function"
    },
    {
      "inputs": [
        {
          "internalType": "bytes32",
          "name": "c",
          "type": "bytes32"
        },
        {
          "internalType": "bytes32",
          "name": "m",
          "type": "bytes32"
        },
        {
          "internalType": "uint256",
          "name": "r",
          "type": "uint256"
        }
      ],
      "name": "createZ",
      "outputs": [
        {
          "internalType": "bytes32",
          "name": "",
          "type": "bytes32"
        }
      ],
      "stateMutability": "pure",
      "type": "function"
    },
    {
      "inputs": [
        {
          "internalType": "uint256[2]",
          "name": "c1",
          "type": "uint256[2]"
        },
        {
          "internalType": "uint256[2]",
          "name": "c2",
          "type": "uint256[2]"
        },
        {
          "internalType": "uint256[2]",
          "name": "c3",
          "type": "uint256[2]"
        },
        {
          "internalType": "uint256[2]",
          "name": "c4",
          "type": "uint256[2]"
        }
      ],
      "name": "hashall",
      "outputs": [
        {
          "internalType": "bytes32",
          "name": "result",
          "type": "bytes32"
        }
      ],
      "stateMutability": "pure",
      "type": "function"
    },
    {
      "inputs": [
        {
          "internalType": "uint256[2]",
          "name": "c1",
          "type": "uint256[2]"
        },
        {
          "internalType": "uint256[2]",
          "name": "c2",
          "type": "uint256[2]"
        },
        {
          "internalType": "uint256[2]",
          "name": "c3",
          "type": "uint256[2]"
        },
        {
          "internalType": "uint256[2]",
          "name": "c4",
          "type": "uint256[2]"
        },
        {
          "internalType": "uint256",
          "name": "z1",
          "type": "uint256"
        },
        {
          "internalType": "uint256",
          "name": "z2",
          "type": "uint256"
        },
        {
          "internalType": "uint256",
          "name": "z3",
          "type": "uint256"
        }
      ],
      "name": "CommitmentEqualityProof",
      "outputs": [
        {
          "internalType": "bool",
          "name": "",
          "type": "bool"
        }
      ],
      "stateMutability": "payable",
      "type": "function"
    },
    {
      "inputs": [
        {
          "internalType": "uint256[2]",
          "name": "c1",
          "type": "uint256[2]"
        },
        {
          "internalType": "uint256[2]",
          "name": "c3",
          "type": "uint256[2]"
        },
        {
          "internalType": "uint256",
          "name": "c",
          "type": "uint256"
        },
        {
          "internalType": "uint256",
          "name": "z1",
          "type": "uint256"
        },
        {
          "internalType": "uint256",
          "name": "z2",
          "type": "uint256"
        }
      ],
      "name": "checkSame",
      "outputs": [
        {
          "internalType": "bool",
          "name": "",
          "type": "bool"
        }
      ],
      "stateMutability": "pure",
      "type": "function"
    },
    {
      "inputs": [
        {
          "internalType": "uint256[2]",
          "name": "c1",
          "type": "uint256[2]"
        },
        {
          "internalType": "uint256[2]",
          "name": "c3",
          "type": "uint256[2]"
        },
        {
          "internalType": "uint256",
          "name": "scalar",
          "type": "uint256"
        }
      ],
      "name": "createCheckFromCommitment",
      "outputs": [
        {
          "internalType": "bytes32[2]",
          "name": "result_bytes",
          "type": "bytes32[2]"
        }
      ],
      "stateMutability": "pure",
      "type": "function"
    }
  ],
  "bytecode": "0x608060405234801561001057600080fd5b50611a19806100206000396000f3fe6080604052600436106100915760003560e01c8063b7676b2a11610059578063b7676b2a146103cc578063d3069dba1461044d578063d822bc4614610546578063eeeac01e14610690578063f45a5f25146106bb57610091565b80630a8602ce146100965780635727dc5c1461017d5780638a6ab9c7146101a85780638f27136214610244578063997da8d4146103a1575b600080fd5b3480156100a257600080fd5b50610165600480360360e08110156100b957600080fd5b8101908080604001906002806020026040519081016040528092919082600260200280828437600081840152601f19601f820116905080830192505050505050919291929080604001906002806020026040519081016040528092919082600260200280828437600081840152601f19601f820116905080830192505050505050919291929080359060200190929190803590602001909291908035906020019092919050505061071e565b60405180821515815260200191505060405180910390f35b34801561018957600080fd5b506101926107bb565b6040518082815260200191505060405180910390f35b3480156101b457600080fd5b5061022c600480360360808110156101cb57600080fd5b8101908080604001906002806020026040519081016040528092919082600260200280828437600081840152601f19601f820116905080830192505050505050919291929080359060200190929190803590602001909291905050506107c0565b60405180821515815260200191505060405180910390f35b610389600480360361016081101561025b57600080fd5b8101908080604001906002806020026040519081016040528092919082600260200280828437600081840152601f19601f820116905080830192505050505050919291929080604001906002806020026040519081016040528092919082600260200280828437600081840152601f19601f820116905080830192505050505050919291929080604001906002806020026040519081016040528092919082600260200280828437600081840152601f19601f820116905080830192505050505050919291929080604001906002806020026040519081016040528092919082600260200280828437600081840152601f19601f820116905080830192505050505050919291929080359060200190929190803590602001909291908035906020019092919050505061084a565b60405180821515815260200191505060405180910390f35b3480156103ad57600080fd5b506103b661097b565b6040518082815260200191505060405180910390f35b3480156103d857600080fd5b5061040f600480360360408110156103ef57600080fd5b810190808035906020019092919080359060200190929190505050610980565b6040518082600260200280838360005b8381101561043a57808201518184015260208101905061041f565b5050505090500191505060405180910390f35b34801561045957600080fd5b50610508600480360360a081101561047057600080fd5b8101908080604001906002806020026040519081016040528092919082600260200280828437600081840152601f19601f820116905080830192505050505050919291929080604001906002806020026040519081016040528092919082600260200280828437600081840152601f19601f820116905080830192505050505050919291929080359060200190929190505050610c7e565b6040518082600260200280838360005b83811015610533578082015181840152602081019050610518565b5050505090500191505060405180910390f35b34801561055257600080fd5b5061067a600480360361010081101561056a57600080fd5b8101908080604001906002806020026040519081016040528092919082600260200280828437600081840152601f19601f820116905080830192505050505050919291929080604001906002806020026040519081016040528092919082600260200280828437600081840152601f19601f820116905080830192505050505050919291929080604001906002806020026040519081016040528092919082600260200280828437600081840152601f19601f820116905080830192505050505050919291929080604001906002806020026040519081016040528092919082600260200280828437600081840152601f19601f8201169050808301925050505050509192919290505050610ebc565b6040518082815260200191505060405180910390f35b34801561069c57600080fd5b506106a5610fa7565b6040518082815260200191505060405180910390f35b3480156106c757600080fd5b50610708600480360360608110156106de57600080fd5b81019080803590602001909291908035906020019092919080359060200190929190505050610fcb565b6040518082815260200191505060405180910390f35b600061072861197d565b610733878787610c7e565b905061073d61197d565b6107478585610980565b90508060006002811061075657fe5b60200201518260006002811061076857fe5b602002015114801561079b57508060016002811061078257fe5b60200201518260016002811061079457fe5b6020020151145b156107ab576001925050506107b2565b6000925050505b95945050505050565b600781565b60006107ca61197d565b6107d48484610980565b9050806000600281106107e357fe5b602002015160001c856000600281106107f857fe5b602002015114801561082e57508060016002811061081257fe5b602002015160001c8560016002811061082757fe5b6020020151145b1561083d576001915050610843565b60009150505b9392505050565b60008061085989898989610ebc565b9050600061086d8a898460001c898961071e565b9050806108e2576040517f08c379a00000000000000000000000000000000000000000000000000000000081526004018080602001828103825260188152602001807f4333202b20632a433120213d207a312a47202b207a322a48000000000000000081525060200191505060405180910390fd5b60006108f48a898560001c8a8961071e565b905080610969576040517f08c379a00000000000000000000000000000000000000000000000000000000081526004018080602001828103825260188152602001807f4334202b20632a433220213d207a312a47202b207a332a48000000000000000081525060200191505060405180910390fd5b60019350505050979650505050505050565b600081565b61098861197d565b61099061199f565b6109fe837f79be667ef9dcbbac55a06295ce870b07029bfcdb2dce28d959f2815b16f817987f483ada7726a3c4655da4fbfc0e1108a8fd17b448a68554199c47d08ffb10d4b860007ffffffffffffffffffffffffffffffffffffffffffffffffffffffffefffffc2f611034565b82600060028110610a0b57fe5b6020020183600160028110610a1c57fe5b6020020182815250828152505050610a3261199f565b610aa0857fd8bf8b6616bb7d183e2192e1f95bf5a09868dfb1f2e0556d4ab7f572b3c2e0cc7f03fb65bd9acc08d00f5fb91014acc61522aa96c79e3b1aadf3bef0fa7b9c3a0960007ffffffffffffffffffffffffffffffffffffffffffffffffffffffffefffffc2f611034565b82600060028110610aad57fe5b6020020183600160028110610abe57fe5b6020020182815250828152505050610ad461199f565b610b4783600060028110610ae457fe5b602002015184600160028110610af657fe5b602002015184600060028110610b0857fe5b602002015185600160028110610b1a57fe5b602002015160007ffffffffffffffffffffffffffffffffffffffffffffffffffffffffefffffc2f61106e565b82600060028110610b5457fe5b6020020183600160028110610b6557fe5b6020020182815250828152505050610bc481600060028110610b8357fe5b602002015182600160028110610b9557fe5b6020020151600060077ffffffffffffffffffffffffffffffffffffffffffffffffffffffffefffffc2f6110fc565b610c36576040517f08c379a00000000000000000000000000000000000000000000000000000000081526004018080602001828103825260158152602001807f4d757374206265206f6e2074686520637572766521000000000000000000000081525060200191505060405180910390fd5b604051806040016040528082600060028110610c4e57fe5b602002015160001b815260200182600160028110610c6857fe5b602002015160001b815250935050505092915050565b610c8661197d565b610c8e61199f565b610cde8386600060028110610c9f57fe5b602002015187600160028110610cb157fe5b602002015160007ffffffffffffffffffffffffffffffffffffffffffffffffffffffffefffffc2f611034565b82600060028110610ceb57fe5b6020020183600160028110610cfc57fe5b6020020182815250828152505050610d1261199f565b610d8585600060028110610d2257fe5b602002015186600160028110610d3457fe5b602002015184600060028110610d4657fe5b602002015185600160028110610d5857fe5b602002015160007ffffffffffffffffffffffffffffffffffffffffffffffffffffffffefffffc2f61106e565b82600060028110610d9257fe5b6020020183600160028110610da357fe5b6020020182815250828152505050610e0281600060028110610dc157fe5b602002015182600160028110610dd357fe5b6020020151600060077ffffffffffffffffffffffffffffffffffffffffffffffffffffffffefffffc2f6110fc565b610e74576040517f08c379a00000000000000000000000000000000000000000000000000000000081526004018080602001828103825260158152602001807f4d757374206265206f6e2074686520637572766521000000000000000000000081525060200191505060405180910390fd5b604051806040016040528082600060028110610e8c57fe5b602002015160001b815260200182600160028110610ea657fe5b602002015160001b815250925050509392505050565b6000848484846040516020018085600260200280838360005b83811015610ef0578082015181840152602081019050610ed5565b5050505090500184600260200280838360005b83811015610f1e578082015181840152602081019050610f03565b5050505090500183600260200280838360005b83811015610f4c578082015181840152602081019050610f31565b5050505090500182600260200280838360005b83811015610f7a578082015181840152602081019050610f5f565b50505050905001945050505050604051602081830303815290604052805190602001209050949350505050565b7ffffffffffffffffffffffffffffffffffffffffffffffffffffffffefffffc2f81565b60007ffffffffffffffffffffffffffffffffebaaedce6af48a03bbfd25e8cd036414180610ff557fe5b827ffffffffffffffffffffffffffffffffebaaedce6af48a03bbfd25e8cd03641418061101e57fe5b8560001c8760001c090860001b90509392505050565b600080600080600061104b8a8a8a60018b8b6111a0565b92509250925061105d8383838961123e565b945094505050509550959350505050565b6000806000806000888b14156110bf576000868061108857fe5b898c0814156110a057600080945094505050506110f1565b6110ae8b8b60018a8a611299565b8093508194508295505050506110dd565b6110d08b8b60018c8c60018c6113b8565b8093508194508295505050505b6110e98383838961123e565b945094505050505b965096945050505050565b6000856000148061110d5750818610155b806111185750846000145b806111235750818510155b156111315760009050611197565b6000828061113b57fe5b86870990506000838061114a57fe5b88858061115357fe5b8a8b090990506000861461117957838061116957fe5b848061117157fe5b878a09820890505b6000851461118f57838061118957fe5b85820890505b808214925050505b95945050505050565b6000806000808914156111bb57878787925092509250611232565b60008990506000806000600190505b6000841461122457600060018516146111f9576111ec8383838f8f8f8e6113b8565b8093508194508295505050505b6002848161120357fe5b0493506112138c8c8c8c8c611299565b809c50819d50829e505050506111ca565b828282965096509650505050505b96509650969350505050565b600080600061124d8585611889565b90506000848061125957fe5b82830990506000858061126857fe5b828a0990506000868061127757fe5b878061127f57fe5b8486098a0990508181955095505050505094509492505050565b6000806000808614156112b4578787879250925092506113ad565b600084806112be57fe5b898a099050600085806112cd57fe5b898a099050600086806112dc57fe5b898a099050600087806112eb57fe5b88806112f357fe5b848e0960040990506000888061130557fe5b898061130d57fe5b8a8061131557fe5b8586098c098a8061132257fe5b87600309089050888061133157fe5b898061133957fe5b8384088a038a8061134657fe5b838409089450888061135457fe5b898061135c57fe5b8a8061136457fe5b8687096008098a038a8061137457fe5b8b8061137c57fe5b888d0386088409089350888061138e57fe5b898061139657fe5b8c8e09600209925084848497509750975050505050505b955095509592505050565b6000806000808a1480156113cc5750600089145b156113df5786868692509250925061187c565b6000871480156113ef5750600086145b156114025789898992509250925061187c565b61140a6119c1565b848061141257fe5b898a098160006004811061142257fe5b602002018181525050848061143357fe5b8160006004811061144057fe5b60200201518a098160016004811061145457fe5b602002018181525050848061146557fe5b8687098160026004811061147557fe5b602002018181525050848061148657fe5b8160026004811061149357fe5b60200201518709816003600481106114a757fe5b602002018181525050604051806080016040528086806114c357fe5b836002600481106114d057fe5b60200201518e09815260200186806114e457fe5b836003600481106114f157fe5b60200201518d098152602001868061150557fe5b8360006004811061151257fe5b60200201518b098152602001868061152657fe5b8360016004811061153357fe5b60200201518a0981525090508060026004811061154c57fe5b60200201518160006004811061155e57fe5b602002015114158061159257508060036004811061157857fe5b60200201518160016004811061158a57fe5b602002015114155b611604576040517f08c379a000000000000000000000000000000000000000000000000000000000815260040180806020018281038252601e8152602001807f557365206a6163446f75626c652066756e6374696f6e20696e7374656164000081525060200191505060405180910390fd5b61160c6119c1565b858061161457fe5b8260006004811061162157fe5b602002015187038360026004811061163557fe5b6020020151088160006004811061164857fe5b602002018181525050858061165957fe5b8260016004811061166657fe5b602002015187038360036004811061167a57fe5b6020020151088160016004811061168d57fe5b602002018181525050858061169e57fe5b816000600481106116ab57fe5b6020020151826000600481106116bd57fe5b602002015109816002600481106116d057fe5b60200201818152505085806116e157fe5b816000600481106116ee57fe5b60200201518260026004811061170057fe5b6020020151098160036004811061171357fe5b6020020181815250506000868061172657fe5b8260036004811061173357fe5b60200201518803888061174257fe5b8460016004811061174f57fe5b60200201518560016004811061176157fe5b602002015109089050868061177257fe5b878061177a57fe5b888061178257fe5b8460026004811061178f57fe5b6020020151866000600481106117a157fe5b602002015109600209880382089050600087806117ba57fe5b88806117c257fe5b838a038a806117cd57fe5b866002600481106117da57fe5b6020020151886000600481106117ec57fe5b602002015109088460016004811061180057fe5b6020020151099050878061181057fe5b888061181857fe5b8460036004811061182557fe5b60200201518660016004811061183757fe5b6020020151098903820890506000888061184d57fe5b898061185557fe5b8b8f098560006004811061186557fe5b602002015109905082828297509750975050505050505b9750975097945050505050565b600080831415801561189b5750818314155b80156118a8575060008214155b61191a576040517f08c379a000000000000000000000000000000000000000000000000000000000815260040180806020018281038252600e8152602001807f496e76616c6964206e756d62657200000000000000000000000000000000000081525060200191505060405180910390fd5b60008060019050600084905060005b600087146119705786828161193a57fe5b04905082868061194657fe5b878061194e57fe5b8584098803860880945081955050508687820283038098508193505050611929565b8394505050505092915050565b6040518060400160405280600290602082028036833780820191505090505090565b6040518060400160405280600290602082028036833780820191505090505090565b604051806080016040528060049060208202803683378082019150509050509056fea2646970667358221220fc8fb4367b8f76fe8e77df30c926ae884ef9561e0a82badc2b04aa708a1fb62664736f6c634300060c0033",
  "immutableReferences": {},
  "source": "// SPDX-License-Identifier: QQ\r\npragma solidity >=0.5.3 <0.7.0;\r\n\r\n\r\ncontract PedersenCommitment{\r\n    ///////////////declaration\r\n    \r\n      // Base point (generator) G\r\n      uint constant Gx = 0x79BE667EF9DCBBAC55A06295CE870B07029BFCDB2DCE28D959F2815B16F81798;\r\n      uint constant Gy = 0x483ADA7726A3C4655DA4FBFC0E1108A8FD17B448A68554199C47D08FFB10D4B8;\r\n\r\n      // New  point (generator) Y\r\n      uint constant Yx = 98038005178408974007512590727651089955354106077095278304532603697039577112780;\r\n      uint constant Yy = 1801119347122147381158502909947365828020117721497557484744596940174906898953;\r\n      uint256 public constant AA = 0;\r\n      uint256 public constant BB = 7;\r\n      uint256 public constant PP = 0xFFFFFFFFFFFFFFFFFFFFFFFFFFFFFFFFFFFFFFFFFFFFFFFFFFFFFFFEFFFFFC2F;\r\n      \r\n      // Modulus for private keys (sub-group)\r\n    uint constant nn = 0xFFFFFFFFFFFFFFFFFFFFFFFFFFFFFFFEBAAEDCE6AF48A03BBFD25E8CD0364141;\r\n    \r\n      // Expects random factor 'r' and commitment 'b'. Generators are hard-coded into this contract.\r\n    function createCommitment(uint r, uint b)public pure returns (bytes32[2] memory c_affine_bytes){\r\n      uint[2] memory bG;\r\n      (bG[0],bG[1]) =  EllipticCurve.ecMul(b,Gx,Gy,AA,PP); \r\n      //uint[3] memory bG = Secp256k1_noconflict._mul(b,G);\r\n      uint[2] memory rY ;\r\n      (rY[0],rY[1])= EllipticCurve.ecMul(r,Yx,Yy,AA,PP); \r\n      //uint[3] memory rY = Secp256k1_noconflict._mul(r,Y);\r\n      uint[2] memory c_affine;\r\n      (c_affine[0],c_affine[1])=  EllipticCurve.ecAdd(bG[0],bG[1],rY[0],rY[1],AA,PP);\r\n      //uint[3] memory c = Secp256k1_noconflict._add(bG,rY);\r\n\r\n      // Sanity check that everything worked as expected.\r\n      require(EllipticCurve.isOnCurve(c_affine[0],c_affine[1],AA,BB,PP),\"Must be on the curve!\");\r\n\r\n      c_affine_bytes = [bytes32(c_affine[0]),bytes32(c_affine[1])];\r\n    }\r\n    \r\n    // We need to re-create the commitment and check that it matches c.\r\n    function openCommitment(uint[2] memory c, uint r, uint b)public pure returns (bool) {\r\n\r\n      bytes32[2] memory c_computed = createCommitment(r,b);\r\n\r\n      // Check that the commitments match...\r\n      if(c[0] == uint(c_computed[0]) && c[1] == uint(c_computed[1])) {\r\n        return true;\r\n      }\r\n\r\n      return false;\r\n    }\r\n    \r\n    function createZ(bytes32 c, bytes32 m, uint r)public pure returns (bytes32){\r\n        return bytes32(addmod(mulmod(uint(c),uint(m),nn),r,nn));\r\n        // return uint(c)*uint(m) + r;\r\n    }\r\n    \r\n    function hashall(uint[2] memory c1,uint[2] memory c2,uint[2] memory c3,uint[2] memory c4)public pure returns (bytes32 result){\r\n        return keccak256(abi.encodePacked(c1,c2,c3,c4));\r\n    }\r\n    \r\n    function CommitmentEqualityProof(uint[2] memory c1,uint[2] memory c2,uint[2] memory c3,uint[2] memory c4,uint z1,uint z2,uint z3)public payable returns(bool){\r\n        // get (C1,C2,C3,C4,z1,z2,z3)\r\n        // c = hash(C1,C2,C3,C4)\r\n        // check if\r\n        bytes32 c = hashall(c1,c2,c3,c4);\r\n        // C3 + c*C1 ?= z1*G + z2*H\r\n        // C3 + c*C1 => P1 , z1*G + z2*H => P2\r\n        bool check1 = checkSame(c1,c3,uint(c),z1,z2);\r\n        require(check1,\"C3 + c*C1 != z1*G + z2*H\");\r\n        // C4 + c*C2 ?= z1*G + z3*H\r\n        // C4 + c*C2 => P3 , z1*G + z3*H => P4\r\n        bool check2 = checkSame(c2,c4,uint(c),z1,z3);\r\n        require(check2,\"C4 + c*C2 != z1*G + z3*H\");\r\n        return true;\r\n    }\r\n    \r\n    function checkSame(uint[2] memory c1,uint[2] memory c3,uint c, uint z1,uint z2)public pure returns(bool){\r\n        bytes32[2] memory p1 = createCheckFromCommitment(c1,c3,uint(c));\r\n        bytes32[2] memory p2 = createCommitment(z1,z2);\r\n        if(p1[0] == p2[0] && p1[1] == p2[1]){\r\n            return true;\r\n        }\r\n        return false;\r\n    }\r\n    \r\n    // C3 + c*C1 => P1 \r\n    function createCheckFromCommitment(uint[2] memory c1,uint[2] memory c3, uint scalar)public pure returns(bytes32[2] memory result_bytes){\r\n        uint[2] memory p1;\r\n        // c * c1\r\n        (p1[0],p1[1]) = EllipticCurve.ecMul(scalar,c1[0],c1[1],AA,PP);\r\n        // C3 + c*C1 => P1 \r\n        uint[2] memory result;\r\n        (result[0],result[1]) = EllipticCurve.ecAdd(c3[0],c3[1],p1[0],p1[1],AA,PP);\r\n        require(EllipticCurve.isOnCurve(result[0],result[1],AA,BB,PP),\"Must be on the curve!\");\r\n        result_bytes = [bytes32(result[0]),bytes32(result[1])];\r\n    }\r\n    \r\n}\r\n\r\n\r\n\r\n///////////////////////////\r\npragma solidity >=0.5.3 <0.7.0;\r\n\r\n\r\n/**\r\n * @title Elliptic Curve Library\r\n * @dev Library providing arithmetic operations over elliptic curves.\r\n * This library does not check whether the inserted points belong to the curve\r\n * `isOnCurve` function should be used by the library user to check the aforementioned statement.\r\n * @author Witnet Foundation\r\n */\r\nlibrary EllipticCurve {\r\n\r\n  /// @dev Pre-computed constant for 2 ** 255\r\n  uint256 constant private U255_MAX_PLUS_1 = 57896044618658097711785492504343953926634992332820282019728792003956564819968;\r\n\r\n  /// @dev Modular euclidean inverse of a number (mod p).\r\n  /// @param _x The number\r\n  /// @param _pp The modulus\r\n  /// @return q such that x*q = 1 (mod _pp)\r\n  function invMod(uint256 _x, uint256 _pp) internal pure returns (uint256) {\r\n    require(_x != 0 && _x != _pp && _pp != 0, \"Invalid number\");\r\n    uint256 q = 0;\r\n    uint256 newT = 1;\r\n    uint256 r = _pp;\r\n    uint256 t;\r\n    while (_x != 0) {\r\n      t = r / _x;\r\n      (q, newT) = (newT, addmod(q, (_pp - mulmod(t, newT, _pp)), _pp));\r\n      (r, _x) = (_x, r - t * _x);\r\n    }\r\n\r\n    return q;\r\n  }\r\n\r\n  /// @dev Modular exponentiation, b^e % _pp.\r\n  /// Source: https://github.com/androlo/standard-contracts/blob/master/contracts/src/crypto/ECCMath.sol\r\n  /// @param _base base\r\n  /// @param _exp exponent\r\n  /// @param _pp modulus\r\n  /// @return r such that r = b**e (mod _pp)\r\n  function expMod(uint256 _base, uint256 _exp, uint256 _pp) internal pure returns (uint256) {\r\n    require(_pp!=0, \"Modulus is zero\");\r\n\r\n    if (_base == 0)\r\n      return 0;\r\n    if (_exp == 0)\r\n      return 1;\r\n\r\n    uint256 r = 1;\r\n    uint256 bit = U255_MAX_PLUS_1;\r\n    assembly {\r\n      for { } gt(bit, 0) { }{\r\n        r := mulmod(mulmod(r, r, _pp), exp(_base, iszero(iszero(and(_exp, bit)))), _pp)\r\n        r := mulmod(mulmod(r, r, _pp), exp(_base, iszero(iszero(and(_exp, div(bit, 2))))), _pp)\r\n        r := mulmod(mulmod(r, r, _pp), exp(_base, iszero(iszero(and(_exp, div(bit, 4))))), _pp)\r\n        r := mulmod(mulmod(r, r, _pp), exp(_base, iszero(iszero(and(_exp, div(bit, 8))))), _pp)\r\n        bit := div(bit, 16)\r\n      }\r\n    }\r\n\r\n    return r;\r\n  }\r\n\r\n  /// @dev Converts a point (x, y, z) expressed in Jacobian coordinates to affine coordinates (x', y', 1).\r\n  /// @param _x coordinate x\r\n  /// @param _y coordinate y\r\n  /// @param _z coordinate z\r\n  /// @param _pp the modulus\r\n  /// @return (x', y') affine coordinates\r\n  function toAffine(\r\n    uint256 _x,\r\n    uint256 _y,\r\n    uint256 _z,\r\n    uint256 _pp)\r\n  internal pure returns (uint256, uint256)\r\n  {\r\n    uint256 zInv = invMod(_z, _pp);\r\n    uint256 zInv2 = mulmod(zInv, zInv, _pp);\r\n    uint256 x2 = mulmod(_x, zInv2, _pp);\r\n    uint256 y2 = mulmod(_y, mulmod(zInv, zInv2, _pp), _pp);\r\n\r\n    return (x2, y2);\r\n  }\r\n\r\n  /// @dev Derives the y coordinate from a compressed-format point x [[SEC-1]](https://www.secg.org/SEC1-Ver-1.0.pdf).\r\n  /// @param _prefix parity byte (0x02 even, 0x03 odd)\r\n  /// @param _x coordinate x\r\n  /// @param _aa constant of curve\r\n  /// @param _bb constant of curve\r\n  /// @param _pp the modulus\r\n  /// @return y coordinate y\r\n  function deriveY(\r\n    uint8 _prefix,\r\n    uint256 _x,\r\n    uint256 _aa,\r\n    uint256 _bb,\r\n    uint256 _pp)\r\n  internal pure returns (uint256)\r\n  {\r\n    require(_prefix == 0x02 || _prefix == 0x03, \"Invalid compressed EC point prefix\");\r\n\r\n    // x^3 + ax + b\r\n    uint256 y2 = addmod(mulmod(_x, mulmod(_x, _x, _pp), _pp), addmod(mulmod(_x, _aa, _pp), _bb, _pp), _pp);\r\n    y2 = expMod(y2, (_pp + 1) / 4, _pp);\r\n    // uint256 cmp = yBit ^ y_ & 1;\r\n    uint256 y = (y2 + _prefix) % 2 == 0 ? y2 : _pp - y2;\r\n\r\n    return y;\r\n  }\r\n\r\n  /// @dev Check whether point (x,y) is on curve defined by a, b, and _pp.\r\n  /// @param _x coordinate x of P1\r\n  /// @param _y coordinate y of P1\r\n  /// @param _aa constant of curve\r\n  /// @param _bb constant of curve\r\n  /// @param _pp the modulus\r\n  /// @return true if x,y in the curve, false else\r\n  function isOnCurve(\r\n    uint _x,\r\n    uint _y,\r\n    uint _aa,\r\n    uint _bb,\r\n    uint _pp)\r\n  internal pure returns (bool)\r\n  {\r\n    if (0 == _x || _x >= _pp || 0 == _y || _y >= _pp) {\r\n      return false;\r\n    }\r\n    // y^2\r\n    uint lhs = mulmod(_y, _y, _pp);\r\n    // x^3\r\n    uint rhs = mulmod(mulmod(_x, _x, _pp), _x, _pp);\r\n    if (_aa != 0) {\r\n      // x^3 + a*x\r\n      rhs = addmod(rhs, mulmod(_x, _aa, _pp), _pp);\r\n    }\r\n    if (_bb != 0) {\r\n      // x^3 + a*x + b\r\n      rhs = addmod(rhs, _bb, _pp);\r\n    }\r\n\r\n    return lhs == rhs;\r\n  }\r\n\r\n  /// @dev Calculate inverse (x, -y) of point (x, y).\r\n  /// @param _x coordinate x of P1\r\n  /// @param _y coordinate y of P1\r\n  /// @param _pp the modulus\r\n  /// @return (x, -y)\r\n  function ecInv(\r\n    uint256 _x,\r\n    uint256 _y,\r\n    uint256 _pp)\r\n  internal pure returns (uint256, uint256)\r\n  {\r\n    return (_x, (_pp - _y) % _pp);\r\n  }\r\n\r\n  /// @dev Add two points (x1, y1) and (x2, y2) in affine coordinates.\r\n  /// @param _x1 coordinate x of P1\r\n  /// @param _y1 coordinate y of P1\r\n  /// @param _x2 coordinate x of P2\r\n  /// @param _y2 coordinate y of P2\r\n  /// @param _aa constant of the curve\r\n  /// @param _pp the modulus\r\n  /// @return (qx, qy) = P1+P2 in affine coordinates\r\n  function ecAdd(\r\n    uint256 _x1,\r\n    uint256 _y1,\r\n    uint256 _x2,\r\n    uint256 _y2,\r\n    uint256 _aa,\r\n    uint256 _pp)\r\n    internal pure returns(uint256, uint256)\r\n  {\r\n    uint x = 0;\r\n    uint y = 0;\r\n    uint z = 0;\r\n\r\n    // Double if x1==x2 else add\r\n    if (_x1==_x2) {\r\n      // y1 = -y2 mod p\r\n      if (addmod(_y1, _y2, _pp) == 0) {\r\n        return(0, 0);\r\n      } else {\r\n        // P1 = P2\r\n        (x, y, z) = jacDouble(\r\n          _x1,\r\n          _y1,\r\n          1,\r\n          _aa,\r\n          _pp);\r\n      }\r\n    } else {\r\n      (x, y, z) = jacAdd(\r\n        _x1,\r\n        _y1,\r\n        1,\r\n        _x2,\r\n        _y2,\r\n        1,\r\n        _pp);\r\n    }\r\n    // Get back to affine\r\n    return toAffine(\r\n      x,\r\n      y,\r\n      z,\r\n      _pp);\r\n  }\r\n\r\n  /// @dev Substract two points (x1, y1) and (x2, y2) in affine coordinates.\r\n  /// @param _x1 coordinate x of P1\r\n  /// @param _y1 coordinate y of P1\r\n  /// @param _x2 coordinate x of P2\r\n  /// @param _y2 coordinate y of P2\r\n  /// @param _aa constant of the curve\r\n  /// @param _pp the modulus\r\n  /// @return (qx, qy) = P1-P2 in affine coordinates\r\n  function ecSub(\r\n    uint256 _x1,\r\n    uint256 _y1,\r\n    uint256 _x2,\r\n    uint256 _y2,\r\n    uint256 _aa,\r\n    uint256 _pp)\r\n  internal pure returns(uint256, uint256)\r\n  {\r\n    // invert square\r\n    (uint256 x, uint256 y) = ecInv(_x2, _y2, _pp);\r\n    // P1-square\r\n    return ecAdd(\r\n      _x1,\r\n      _y1,\r\n      x,\r\n      y,\r\n      _aa,\r\n      _pp);\r\n  }\r\n\r\n  /// @dev Multiply point (x1, y1, z1) times d in affine coordinates.\r\n  /// @param _k scalar to multiply\r\n  /// @param _x coordinate x of P1\r\n  /// @param _y coordinate y of P1\r\n  /// @param _aa constant of the curve\r\n  /// @param _pp the modulus\r\n  /// @return (qx, qy) = d*P in affine coordinates\r\n  function ecMul(\r\n    uint256 _k,\r\n    uint256 _x,\r\n    uint256 _y,\r\n    uint256 _aa,\r\n    uint256 _pp)\r\n  internal pure returns(uint256, uint256)\r\n  {\r\n    // Jacobian multiplication\r\n    (uint256 x1, uint256 y1, uint256 z1) = jacMul(\r\n      _k,\r\n      _x,\r\n      _y,\r\n      1,\r\n      _aa,\r\n      _pp);\r\n    // Get back to affine\r\n    return toAffine(\r\n      x1,\r\n      y1,\r\n      z1,\r\n      _pp);\r\n  }\r\n\r\n  /// @dev Adds two points (x1, y1, z1) and (x2 y2, z2).\r\n  /// @param _x1 coordinate x of P1\r\n  /// @param _y1 coordinate y of P1\r\n  /// @param _z1 coordinate z of P1\r\n  /// @param _x2 coordinate x of square\r\n  /// @param _y2 coordinate y of square\r\n  /// @param _z2 coordinate z of square\r\n  /// @param _pp the modulus\r\n  /// @return (qx, qy, qz) P1+square in Jacobian\r\n  function jacAdd(\r\n    uint256 _x1,\r\n    uint256 _y1,\r\n    uint256 _z1,\r\n    uint256 _x2,\r\n    uint256 _y2,\r\n    uint256 _z2,\r\n    uint256 _pp)\r\n  internal pure returns (uint256, uint256, uint256)\r\n  {\r\n    if (_x1==0 && _y1==0)\r\n      return (_x2, _y2, _z2);\r\n    if (_x2==0 && _y2==0)\r\n      return (_x1, _y1, _z1);\r\n\r\n    // We follow the equations described in https://pdfs.semanticscholar.org/5c64/29952e08025a9649c2b0ba32518e9a7fb5c2.pdf Section 5\r\n    uint[4] memory zs; // z1^2, z1^3, z2^2, z2^3\r\n    zs[0] = mulmod(_z1, _z1, _pp);\r\n    zs[1] = mulmod(_z1, zs[0], _pp);\r\n    zs[2] = mulmod(_z2, _z2, _pp);\r\n    zs[3] = mulmod(_z2, zs[2], _pp);\r\n\r\n    // u1, s1, u2, s2\r\n    zs = [\r\n      mulmod(_x1, zs[2], _pp),\r\n      mulmod(_y1, zs[3], _pp),\r\n      mulmod(_x2, zs[0], _pp),\r\n      mulmod(_y2, zs[1], _pp)\r\n    ];\r\n\r\n    // In case of zs[0] == zs[2] && zs[1] == zs[3], double function should be used\r\n    require(zs[0] != zs[2] || zs[1] != zs[3], \"Use jacDouble function instead\");\r\n\r\n    uint[4] memory hr;\r\n    //h\r\n    hr[0] = addmod(zs[2], _pp - zs[0], _pp);\r\n    //r\r\n    hr[1] = addmod(zs[3], _pp - zs[1], _pp);\r\n    //h^2\r\n    hr[2] = mulmod(hr[0], hr[0], _pp);\r\n    // h^3\r\n    hr[3] = mulmod(hr[2], hr[0], _pp);\r\n    // qx = -h^3  -2u1h^2+r^2\r\n    uint256 qx = addmod(mulmod(hr[1], hr[1], _pp), _pp - hr[3], _pp);\r\n    qx = addmod(qx, _pp - mulmod(2, mulmod(zs[0], hr[2], _pp), _pp), _pp);\r\n    // qy = -s1*z1*h^3+r(u1*h^2 -x^3)\r\n    uint256 qy = mulmod(hr[1], addmod(mulmod(zs[0], hr[2], _pp), _pp - qx, _pp), _pp);\r\n    qy = addmod(qy, _pp - mulmod(zs[1], hr[3], _pp), _pp);\r\n    // qz = h*z1*z2\r\n    uint256 qz = mulmod(hr[0], mulmod(_z1, _z2, _pp), _pp);\r\n    return(qx, qy, qz);\r\n  }\r\n\r\n  /// @dev Doubles a points (x, y, z).\r\n  /// @param _x coordinate x of P1\r\n  /// @param _y coordinate y of P1\r\n  /// @param _z coordinate z of P1\r\n  /// @param _aa the a scalar in the curve equation\r\n  /// @param _pp the modulus\r\n  /// @return (qx, qy, qz) 2P in Jacobian\r\n  function jacDouble(\r\n    uint256 _x,\r\n    uint256 _y,\r\n    uint256 _z,\r\n    uint256 _aa,\r\n    uint256 _pp)\r\n  internal pure returns (uint256, uint256, uint256)\r\n  {\r\n    if (_z == 0)\r\n      return (_x, _y, _z);\r\n\r\n    // We follow the equations described in https://pdfs.semanticscholar.org/5c64/29952e08025a9649c2b0ba32518e9a7fb5c2.pdf Section 5\r\n    // Note: there is a bug in the paper regarding the m parameter, M=3*(x1^2)+a*(z1^4)\r\n    // x, y, z at this point represent the squares of _x, _y, _z\r\n    uint256 x = mulmod(_x, _x, _pp); //x1^2\r\n    uint256 y = mulmod(_y, _y, _pp); //y1^2\r\n    uint256 z = mulmod(_z, _z, _pp); //z1^2\r\n\r\n    // s\r\n    uint s = mulmod(4, mulmod(_x, y, _pp), _pp);\r\n    // m\r\n    uint m = addmod(mulmod(3, x, _pp), mulmod(_aa, mulmod(z, z, _pp), _pp), _pp);\r\n\r\n    // x, y, z at this point will be reassigned and rather represent qx, qy, qz from the paper\r\n    // This allows to reduce the gas cost and stack footprint of the algorithm\r\n    // qx\r\n    x = addmod(mulmod(m, m, _pp), _pp - addmod(s, s, _pp), _pp);\r\n    // qy = -8*y1^4 + M(S-T)\r\n    y = addmod(mulmod(m, addmod(s, _pp - x, _pp), _pp), _pp - mulmod(8, mulmod(y, y, _pp), _pp), _pp);\r\n    // qz = 2*y1*z1\r\n    z = mulmod(2, mulmod(_y, _z, _pp), _pp);\r\n\r\n    return (x, y, z);\r\n  }\r\n\r\n  /// @dev Multiply point (x, y, z) times d.\r\n  /// @param _d scalar to multiply\r\n  /// @param _x coordinate x of P1\r\n  /// @param _y coordinate y of P1\r\n  /// @param _z coordinate z of P1\r\n  /// @param _aa constant of curve\r\n  /// @param _pp the modulus\r\n  /// @return (qx, qy, qz) d*P1 in Jacobian\r\n  function jacMul(\r\n    uint256 _d,\r\n    uint256 _x,\r\n    uint256 _y,\r\n    uint256 _z,\r\n    uint256 _aa,\r\n    uint256 _pp)\r\n  internal pure returns (uint256, uint256, uint256)\r\n  {\r\n    // Early return in case that `_d == 0`\r\n    if (_d == 0) {\r\n      return (_x, _y, _z);\r\n    }\r\n\r\n    uint256 remaining = _d;\r\n    uint256 qx = 0;\r\n    uint256 qy = 0;\r\n    uint256 qz = 1;\r\n\r\n    // Double and add algorithm\r\n    while (remaining != 0) {\r\n      if ((remaining & 1) != 0) {\r\n        (qx, qy, qz) = jacAdd(\r\n          qx,\r\n          qy,\r\n          qz,\r\n          _x,\r\n          _y,\r\n          _z,\r\n          _pp);\r\n      }\r\n      remaining = remaining / 2;\r\n      (_x, _y, _z) = jacDouble(\r\n        _x,\r\n        _y,\r\n        _z,\r\n        _aa,\r\n        _pp);\r\n    }\r\n    return (qx, qy, qz);\r\n  }\r\n}",
  "sourcePath": "C:\\Users\\su tzu hsuan\\vincent\\SelectiveDisclosureCertification\\contracts\\pedersenCommitment.sol",
  "compiler": {
    "name": "solc",
    "version": "0.6.12+commit.27d51765.Emscripten.clang"
  },
  "schemaVersion": "3.4.3",
  "updatedAt": "2021-10-23T08:57:55.753Z",
  "devdoc": {
    "kind": "dev",
    "methods": {},
    "version": 1
  },
  "userdoc": {
    "kind": "user",
    "methods": {},
    "version": 1
  }
}