{
  "contractName": "validate",
  "abi": [
    {
      "inputs": [],
      "stateMutability": "nonpayable",
      "type": "constructor"
    },
    {
      "inputs": [
        {
          "internalType": "uint256",
          "name": "",
          "type": "uint256"
        }
      ],
      "name": "rulekeys",
      "outputs": [
        {
          "internalType": "bytes32",
          "name": "",
          "type": "bytes32"
        }
      ],
      "stateMutability": "view",
      "type": "function"
    },
    {
      "inputs": [
        {
          "internalType": "bytes32",
          "name": "keyhash",
          "type": "bytes32"
        },
        {
          "internalType": "uint256[2]",
          "name": "c1",
          "type": "uint256[2]"
        },
        {
          "internalType": "address",
          "name": "AA",
          "type": "address"
        },
        {
          "internalType": "bytes32",
          "name": "r",
          "type": "bytes32"
        }
      ],
      "name": "setValidateRule",
      "outputs": [],
      "stateMutability": "payable",
      "type": "function"
    },
    {
      "inputs": [
        {
          "internalType": "address",
          "name": "user",
          "type": "address"
        }
      ],
      "name": "checkAllPass",
      "outputs": [
        {
          "internalType": "bool",
          "name": "",
          "type": "bool"
        }
      ],
      "stateMutability": "view",
      "type": "function"
    },
    {
      "inputs": [
        {
          "internalType": "bytes32",
          "name": "keyhash",
          "type": "bytes32"
        },
        {
          "internalType": "uint256[2]",
          "name": "c2",
          "type": "uint256[2]"
        },
        {
          "internalType": "uint256[2]",
          "name": "c3",
          "type": "uint256[2]"
        },
        {
          "internalType": "uint256[2]",
          "name": "c4",
          "type": "uint256[2]"
        },
        {
          "internalType": "uint256",
          "name": "z1",
          "type": "uint256"
        },
        {
          "internalType": "uint256",
          "name": "z2",
          "type": "uint256"
        },
        {
          "internalType": "uint256",
          "name": "z3",
          "type": "uint256"
        },
        {
          "internalType": "bytes32",
          "name": "vc",
          "type": "bytes32"
        }
      ],
      "name": "validateOneAttribute",
      "outputs": [
        {
          "internalType": "bool",
          "name": "",
          "type": "bool"
        }
      ],
      "stateMutability": "payable",
      "type": "function"
    },
    {
      "inputs": [],
      "name": "validUserLength",
      "outputs": [
        {
          "internalType": "uint256",
          "name": "",
          "type": "uint256"
        }
      ],
      "stateMutability": "view",
      "type": "function"
    },
    {
      "inputs": [
        {
          "internalType": "uint256",
          "name": "startPos",
          "type": "uint256"
        },
        {
          "internalType": "uint256",
          "name": "querynum",
          "type": "uint256"
        }
      ],
      "name": "viewValidList",
      "outputs": [
        {
          "internalType": "address[]",
          "name": "returnList",
          "type": "address[]"
        }
      ],
      "stateMutability": "view",
      "type": "function"
    },
    {
      "inputs": [],
      "name": "viewRuleKeyList",
      "outputs": [
        {
          "internalType": "bytes32[]",
          "name": "",
          "type": "bytes32[]"
        }
      ],
      "stateMutability": "view",
      "type": "function"
    },
    {
      "inputs": [
        {
          "internalType": "bytes32",
          "name": "keyhash",
          "type": "bytes32"
        }
      ],
      "name": "viewRuleCommitment",
      "outputs": [
        {
          "internalType": "bytes32[2]",
          "name": "",
          "type": "bytes32[2]"
        }
      ],
      "stateMutability": "view",
      "type": "function"
    },
    {
      "inputs": [
        {
          "internalType": "bytes32",
          "name": "keyhash",
          "type": "bytes32"
        }
      ],
      "name": "viewRuleAA",
      "outputs": [
        {
          "internalType": "address",
          "name": "",
          "type": "address"
        }
      ],
      "stateMutability": "view",
      "type": "function"
    },
    {
      "inputs": [
        {
          "internalType": "bytes32",
          "name": "keyhash",
          "type": "bytes32"
        }
      ],
      "name": "viewRuleR",
      "outputs": [
        {
          "internalType": "bytes32",
          "name": "",
          "type": "bytes32"
        }
      ],
      "stateMutability": "view",
      "type": "function"
    }
  ],
  "bytecode": "0x608060405234801561001057600080fd5b50336000806101000a81548173ffffffffffffffffffffffffffffffffffffffff021916908373ffffffffffffffffffffffffffffffffffffffff160217905550610e56806100606000396000f3fe6080604052600436106100915760003560e01c80635801a4b0116100595780635801a4b0146102d757806389edba131461033e5780639bb29cc71461046e578063bcb1d370146104bd578063eab8412c1461052257610091565b8063091308ed146100965780632afaad42146100c157806341ef19641461012d5780634f62f470146101a4578063530c74201461023e575b600080fd5b3480156100a257600080fd5b506100ab610571565b6040518082815260200191505060405180910390f35b3480156100cd57600080fd5b506100d661057e565b6040518080602001828103825283818151815260200191508051906020019060200280838360005b838110156101195780820151818401526020810190506100fe565b505050509050019250505060405180910390f35b34801561013957600080fd5b506101666004803603602081101561015057600080fd5b81019080803590602001909291905050506105d6565b6040518082600260200280838360005b83811015610191578082015181840152602081019050610176565b5050505090500191505060405180910390f35b3480156101b057600080fd5b506101e7600480360360408110156101c757600080fd5b81019080803590602001909291908035906020019092919050505061067c565b6040518080602001828103825283818151815260200191508051906020019060200280838360005b8381101561022a57808201518184015260208101905061020f565b505050509050019250505060405180910390f35b6102d5600480360360a081101561025457600080fd5b810190808035906020019092919080604001906002806020026040519081016040528092919082600260200280828437600081840152601f19601f8201169050808301925050505050509192919290803573ffffffffffffffffffffffffffffffffffffffff16906020019092919080359060200190929190505050610745565b005b3480156102e357600080fd5b50610326600480360360208110156102fa57600080fd5b81019080803573ffffffffffffffffffffffffffffffffffffffff1690602001909291905050506108b2565b60405180821515815260200191505060405180910390f35b610456600480360361016081101561035557600080fd5b810190808035906020019092919080604001906002806020026040519081016040528092919082600260200280828437600081840152601f19601f820116905080830192505050505050919291929080604001906002806020026040519081016040528092919082600260200280828437600081840152601f19601f820116905080830192505050505050919291929080604001906002806020026040519081016040528092919082600260200280828437600081840152601f19601f820116905080830192505050505050919291929080359060200190929190803590602001909291908035906020019092919080359060200190929190505050610973565b60405180821515815260200191505060405180910390f35b34801561047a57600080fd5b506104a76004803603602081101561049157600080fd5b8101908080359060200190929190505050610ce5565b6040518082815260200191505060405180910390f35b3480156104c957600080fd5b506104f6600480360360208110156104e057600080fd5b8101908080359060200190929190505050610d06565b604051808273ffffffffffffffffffffffffffffffffffffffff16815260200191505060405180910390f35b34801561052e57600080fd5b5061055b6004803603602081101561054557600080fd5b8101908080359060200190929190505050610d43565b6040518082815260200191505060405180910390f35b6000600780549050905090565b606060018054806020026020016040519081016040528092919081815260200182805480156105cc57602002820191906000526020600020905b8154815260200190600101908083116105b8575b5050505050905090565b6105de610d60565b6105e6610d82565b60026000848152602001908152602001600020600280602002604051908101604052809291908260028015610630576020028201915b81548152602001906001019080831161061c575b5050505050905060405180604001604052808260006002811061064f57fe5b602002015160001b81526020018260016002811061066957fe5b602002015160001b815250915050919050565b6060600083101561068c57600080fd5b60078054905082840111156106a057600080fd5b60008390505b60078054905081101561073e57600781815481106106c057fe5b9060005260206000200160009054906101000a900473ffffffffffffffffffffffffffffffffffffffff168282815181106106f757fe5b602002602001019073ffffffffffffffffffffffffffffffffffffffff16908173ffffffffffffffffffffffffffffffffffffffff168152505080806001019150506106a6565b5092915050565b60008054906101000a900473ffffffffffffffffffffffffffffffffffffffff1673ffffffffffffffffffffffffffffffffffffffff163373ffffffffffffffffffffffffffffffffffffffff161461079d57600080fd5b6000600260008681526020019081526020016000206000600281106107be57fe5b01541480156107ed57506000600260008681526020019081526020016000206001600281106107e957fe5b0154145b6107f657600080fd5b60018490806001815401808255809150506001900390600052602060002001600090919091909150558260026000868152602001908152602001600020906002610841929190610da4565b50806003600086815260200190815260200160002081905550816004600086815260200190815260200160002060006101000a81548173ffffffffffffffffffffffffffffffffffffffff021916908373ffffffffffffffffffffffffffffffffffffffff16021790555050505050565b600080600090505b600180549050811015610968576000600182815481106108d657fe5b9060005260206000200154905060011515600560008673ffffffffffffffffffffffffffffffffffffffff1673ffffffffffffffffffffffffffffffffffffffff168152602001908152602001600020600083815260200190815260200160002060000160009054906101000a900460ff1615151461095a5760009250505061096e565b5080806001019150506108ba565b50600190505b919050565b60008073f944e6b6164a331134375b8dbae6d33accfcfcc1905060008173ffffffffffffffffffffffffffffffffffffffff16638f271362600260008e81526020019081526020016000208c8c8c8c8c8c6040518863ffffffff1660e01b81526004018088600280156109fb576020028201915b8154815260200190600101908083116109e7575b505087600260200280838360005b83811015610a24578082015181840152602081019050610a09565b5050505090500186600260200280838360005b83811015610a52578082015181840152602081019050610a37565b5050505090500185600260200280838360005b83811015610a80578082015181840152602081019050610a65565b50505050905001848152602001838152602001828152602001975050505050505050602060405180830381600087803b158015610abc57600080fd5b505af1158015610ad0573d6000803e3d6000fd5b505050506040513d6020811015610ae657600080fd5b8101908080519060200190929190505050905080610b6c576040517f08c379a00000000000000000000000000000000000000000000000000000000081526004018080602001828103825260088152602001807f6e6f74207061737300000000000000000000000000000000000000000000000081525060200191505060405180910390fd5b610b74610de4565b818160000190151590811515815250508481602001818152505080600560003373ffffffffffffffffffffffffffffffffffffffff1673ffffffffffffffffffffffffffffffffffffffff16815260200190815260200160002060008e815260200190815260200160002060008201518160000160006101000a81548160ff02191690831515021790555060208201518160010155905050610c15336108b2565b15610cd6576001600660003373ffffffffffffffffffffffffffffffffffffffff1673ffffffffffffffffffffffffffffffffffffffff16815260200190815260200160002060006101000a81548160ff0219169083151502179055506007339080600181540180825580915050600190039060005260206000200160009091909190916101000a81548173ffffffffffffffffffffffffffffffffffffffff021916908373ffffffffffffffffffffffffffffffffffffffff1602179055505b50505098975050505050505050565b60018181548110610cf257fe5b906000526020600020016000915090505481565b60006004600083815260200190815260200160002060009054906101000a900473ffffffffffffffffffffffffffffffffffffffff169050919050565b600060036000838152602001908152602001600020549050919050565b6040518060400160405280600290602082028036833780820191505090505090565b6040518060400160405280600290602082028036833780820191505090505090565b8260028101928215610dd3579160200282015b82811115610dd2578251825591602001919060010190610db7565b5b509050610de09190610e03565b5090565b6040518060400160405280600015158152602001600080191681525090565b5b80821115610e1c576000816000905550600101610e04565b509056fea2646970667358221220e4bd4d29f3378f8e9ca8f0fe7731d6525225807d78fada17373ed4aec819e8af64736f6c634300060c0033",
  "immutableReferences": {},
  "source": "// SPDX-License-Identifier: QQ\r\npragma solidity >=0.5.3 <0.7.0;\r\n// pragma experimental ABIEncoderV2;\r\n\r\nimport \"./pedersenCommitment.sol\";\r\n\r\ncontract validate {\r\n    address owner;\r\n    // struct Rule{\r\n    //     bytes32 keyhash;\r\n    //     uint[2] commitment;\r\n    //     address AA;\r\n    // }\r\n    struct Proof {\r\n        uint[2] c2;\r\n        uint[2] c3;\r\n        uint[2] c4;\r\n        uint z1;\r\n        uint z2;\r\n        uint z3;\r\n    }\r\n    struct Result {\r\n        bool result;\r\n        bytes32 verifiableCredential;\r\n    }\r\n    bytes32[] public rulekeys;\r\n    mapping(bytes32 => uint[2]) rules;\r\n    mapping(bytes32 => bytes32) rulesR;\r\n    mapping(bytes32 => address) rulesAA;\r\n    // user -> key hash -> result;\r\n    mapping(address => mapping(bytes32 => Result)) result;\r\n    mapping(address => bool) pass;\r\n    address[] validUser;\r\n    constructor()public{\r\n        owner = msg.sender;\r\n    }\r\n    \r\n    modifier isOwner(){\r\n        require(msg.sender == owner);\r\n        _;\r\n    }\r\n    \r\n    function setValidateRule(bytes32 keyhash, uint[2]memory c1,address AA,bytes32 r)isOwner public payable{\r\n        require(rules[keyhash][0]==0 && rules[keyhash][1]==0);\r\n        rulekeys.push(keyhash);\r\n        rules[keyhash] = c1;\r\n        rulesR[keyhash] = r;\r\n        rulesAA[keyhash] = AA;\r\n    }\r\n    \r\n    function checkAllPass(address user) public view returns(bool){\r\n        for (uint i = 0;i < rulekeys.length;i++){\r\n            bytes32 keyhash = rulekeys[i];\r\n            if(result[user][keyhash].result != true){\r\n                return false;\r\n            }\r\n        }\r\n        return true;\r\n    }\r\n    \r\n    function validateOneAttribute(bytes32 keyhash,uint[2] memory c2,uint[2] memory c3,uint[2] memory c4,uint z1,uint z2,uint z3,bytes32 vc)public payable returns(bool){\r\n        PedersenCommitment Check = PedersenCommitment(0xF944e6B6164a331134375b8dBAe6D33ACcfCfcc1);\r\n        bool r = Check.CommitmentEqualityProof(rules[keyhash],c2,c3,c4,z1,z2,z3);\r\n        require(r,\"not pass\");\r\n        Result memory temp;\r\n        temp.result = r;\r\n        temp.verifiableCredential = vc;\r\n        result[msg.sender][keyhash] = temp;\r\n        \r\n        if(checkAllPass(msg.sender)){\r\n            pass[msg.sender] = true;\r\n            validUser.push(msg.sender);\r\n        }\r\n    }\r\n    \r\n    function validUserLength()public view returns(uint){\r\n        return validUser.length;\r\n    }\r\n    \r\n    function viewValidList(uint startPos,uint querynum)public view returns(address[] memory returnList){\r\n        require(startPos >= 0);\r\n        require(startPos+querynum<=validUser.length);\r\n        for (uint i = startPos;i < validUser.length;i++){\r\n            returnList[i] = validUser[i];\r\n        }\r\n    }\r\n    \r\n    function viewRuleKeyList()public view returns(bytes32[] memory){\r\n        return rulekeys;\r\n    }\r\n    \r\n    function viewRuleCommitment(bytes32 keyhash)public view returns(bytes32[2] memory){\r\n        uint[2] memory temp = rules[keyhash];\r\n        return [bytes32(temp[0]),bytes32(temp[1])];\r\n    }\r\n    \r\n    function viewRuleAA(bytes32 keyhash)public view returns(address){\r\n        return rulesAA[keyhash];\r\n    }\r\n    \r\n    function viewRuleR(bytes32 keyhash)public view returns(bytes32){\r\n        return rulesR[keyhash];\r\n    }\r\n}",
  "sourcePath": "C:/Users/suvin/Vincent/區塊練技術應用/finalV2/simpleIPFSDrive/contracts/validate.sol",
  "compiler": {
    "name": "solc",
    "version": "0.6.12+commit.27d51765.Emscripten.clang"
  },
  "schemaVersion": "3.3.4",
  "updatedAt": "2021-10-23T15:15:43.996Z",
  "devdoc": {
    "kind": "dev",
    "methods": {},
    "version": 1
  },
  "userdoc": {
    "kind": "user",
    "methods": {},
    "version": 1
  }
}