{
  "contractName": "validate",
  "abi": [
    {
      "inputs": [],
      "stateMutability": "nonpayable",
      "type": "constructor"
    },
    {
      "inputs": [
        {
          "internalType": "uint256",
          "name": "",
          "type": "uint256"
        }
      ],
      "name": "rulekeys",
      "outputs": [
        {
          "internalType": "bytes32",
          "name": "",
          "type": "bytes32"
        }
      ],
      "stateMutability": "view",
      "type": "function"
    },
    {
      "inputs": [
        {
          "internalType": "bytes32",
          "name": "keyhash",
          "type": "bytes32"
        },
        {
          "internalType": "uint256[2]",
          "name": "c1",
          "type": "uint256[2]"
        },
        {
          "internalType": "address",
          "name": "AA",
          "type": "address"
        },
        {
          "internalType": "uint256",
          "name": "r",
          "type": "uint256"
        }
      ],
      "name": "setValidateRule",
      "outputs": [],
      "stateMutability": "payable",
      "type": "function"
    },
    {
      "inputs": [
        {
          "internalType": "address",
          "name": "user",
          "type": "address"
        }
      ],
      "name": "checkAllPass",
      "outputs": [
        {
          "internalType": "bool",
          "name": "",
          "type": "bool"
        }
      ],
      "stateMutability": "view",
      "type": "function"
    },
    {
      "inputs": [
        {
          "internalType": "bytes32",
          "name": "keyhash",
          "type": "bytes32"
        },
        {
          "internalType": "uint256[2]",
          "name": "c2",
          "type": "uint256[2]"
        },
        {
          "internalType": "uint256[2]",
          "name": "c3",
          "type": "uint256[2]"
        },
        {
          "internalType": "uint256[2]",
          "name": "c4",
          "type": "uint256[2]"
        },
        {
          "internalType": "uint256",
          "name": "z1",
          "type": "uint256"
        },
        {
          "internalType": "uint256",
          "name": "z2",
          "type": "uint256"
        },
        {
          "internalType": "uint256",
          "name": "z3",
          "type": "uint256"
        },
        {
          "internalType": "bytes32",
          "name": "vc",
          "type": "bytes32"
        }
      ],
      "name": "validateOneAttribute",
      "outputs": [
        {
          "internalType": "bool",
          "name": "",
          "type": "bool"
        }
      ],
      "stateMutability": "payable",
      "type": "function"
    },
    {
      "inputs": [],
      "name": "validUserLength",
      "outputs": [
        {
          "internalType": "uint256",
          "name": "",
          "type": "uint256"
        }
      ],
      "stateMutability": "view",
      "type": "function"
    },
    {
      "inputs": [
        {
          "internalType": "uint256",
          "name": "startPos",
          "type": "uint256"
        },
        {
          "internalType": "uint256",
          "name": "querynum",
          "type": "uint256"
        }
      ],
      "name": "viewValidList",
      "outputs": [
        {
          "internalType": "address[]",
          "name": "returnList",
          "type": "address[]"
        }
      ],
      "stateMutability": "view",
      "type": "function"
    },
    {
      "inputs": [],
      "name": "viewRuleKeyList",
      "outputs": [
        {
          "internalType": "bytes32[]",
          "name": "",
          "type": "bytes32[]"
        }
      ],
      "stateMutability": "view",
      "type": "function"
    },
    {
      "inputs": [
        {
          "internalType": "bytes32",
          "name": "keyhash",
          "type": "bytes32"
        }
      ],
      "name": "viewRuleCommitment",
      "outputs": [
        {
          "internalType": "uint256[2]",
          "name": "",
          "type": "uint256[2]"
        }
      ],
      "stateMutability": "view",
      "type": "function"
    },
    {
      "inputs": [
        {
          "internalType": "bytes32",
          "name": "keyhash",
          "type": "bytes32"
        }
      ],
      "name": "viewRuleAA",
      "outputs": [
        {
          "internalType": "address",
          "name": "",
          "type": "address"
        }
      ],
      "stateMutability": "view",
      "type": "function"
    },
    {
      "inputs": [
        {
          "internalType": "bytes32",
          "name": "keyhash",
          "type": "bytes32"
        }
      ],
      "name": "viewRuleR",
      "outputs": [
        {
          "internalType": "uint256",
          "name": "",
          "type": "uint256"
        }
      ],
      "stateMutability": "view",
      "type": "function"
    }
  ],
  "bytecode": "0x608060405234801561001057600080fd5b50336000806101000a81548173ffffffffffffffffffffffffffffffffffffffff021916908373ffffffffffffffffffffffffffffffffffffffff160217905550610dec806100606000396000f3fe6080604052600436106100915760003560e01c806389edba131161005957806389edba13146102a55780639bb29cc7146103d5578063bcb1d37014610424578063eab8412c14610489578063fb460443146104d857610091565b8063091308ed146100965780632afaad42146100c157806341ef19641461012d5780634f62f470146101a45780635801a4b01461023e575b600080fd5b3480156100a257600080fd5b506100ab610571565b6040518082815260200191505060405180910390f35b3480156100cd57600080fd5b506100d661057e565b6040518080602001828103825283818151815260200191508051906020019060200280838360005b838110156101195780820151818401526020810190506100fe565b505050509050019250505060405180910390f35b34801561013957600080fd5b506101666004803603602081101561015057600080fd5b81019080803590602001909291905050506105d6565b6040518082600260200280838360005b83811015610191578082015181840152602081019050610176565b5050505090500191505060405180910390f35b3480156101b057600080fd5b506101e7600480360360408110156101c757600080fd5b810190808035906020019092919080359060200190929190505050610634565b6040518080602001828103825283818151815260200191508051906020019060200280838360005b8381101561022a57808201518184015260208101905061020f565b505050509050019250505060405180910390f35b34801561024a57600080fd5b5061028d6004803603602081101561026157600080fd5b81019080803573ffffffffffffffffffffffffffffffffffffffff1690602001909291905050506106fd565b60405180821515815260200191505060405180910390f35b6103bd60048036036101608110156102bc57600080fd5b810190808035906020019092919080604001906002806020026040519081016040528092919082600260200280828437600081840152601f19601f820116905080830192505050505050919291929080604001906002806020026040519081016040528092919082600260200280828437600081840152601f19601f820116905080830192505050505050919291929080604001906002806020026040519081016040528092919082600260200280828437600081840152601f19601f8201169050808301925050505050509192919290803590602001909291908035906020019092919080359060200190929190803590602001909291905050506107be565b60405180821515815260200191505060405180910390f35b3480156103e157600080fd5b5061040e600480360360208110156103f857600080fd5b8101908080359060200190929190505050610b30565b6040518082815260200191505060405180910390f35b34801561043057600080fd5b5061045d6004803603602081101561044757600080fd5b8101908080359060200190929190505050610b51565b604051808273ffffffffffffffffffffffffffffffffffffffff16815260200191505060405180910390f35b34801561049557600080fd5b506104c2600480360360208110156104ac57600080fd5b8101908080359060200190929190505050610b8e565b6040518082815260200191505060405180910390f35b61056f600480360360a08110156104ee57600080fd5b810190808035906020019092919080604001906002806020026040519081016040528092919082600260200280828437600081840152601f19601f8201169050808301925050505050509192919290803573ffffffffffffffffffffffffffffffffffffffff16906020019092919080359060200190929190505050610bab565b005b6000600780549050905090565b606060018054806020026020016040519081016040528092919081815260200182805480156105cc57602002820191906000526020600020905b8154815260200190600101908083116105b8575b5050505050905090565b6105de610d18565b60026000838152602001908152602001600020600280602002604051908101604052809291908260028015610628576020028201915b815481526020019060010190808311610614575b50505050509050919050565b6060600083101561064457600080fd5b600780549050828401111561065857600080fd5b60008390505b6007805490508110156106f6576007818154811061067857fe5b9060005260206000200160009054906101000a900473ffffffffffffffffffffffffffffffffffffffff168282815181106106af57fe5b602002602001019073ffffffffffffffffffffffffffffffffffffffff16908173ffffffffffffffffffffffffffffffffffffffff1681525050808060010191505061065e565b5092915050565b600080600090505b6001805490508110156107b35760006001828154811061072157fe5b9060005260206000200154905060011515600560008673ffffffffffffffffffffffffffffffffffffffff1673ffffffffffffffffffffffffffffffffffffffff168152602001908152602001600020600083815260200190815260200160002060000160009054906101000a900460ff161515146107a5576000925050506107b9565b508080600101915050610705565b50600190505b919050565b60008073f944e6b6164a331134375b8dbae6d33accfcfcc1905060008173ffffffffffffffffffffffffffffffffffffffff16638f271362600260008e81526020019081526020016000208c8c8c8c8c8c6040518863ffffffff1660e01b8152600401808860028015610846576020028201915b815481526020019060010190808311610832575b505087600260200280838360005b8381101561086f578082015181840152602081019050610854565b5050505090500186600260200280838360005b8381101561089d578082015181840152602081019050610882565b5050505090500185600260200280838360005b838110156108cb5780820151818401526020810190506108b0565b50505050905001848152602001838152602001828152602001975050505050505050602060405180830381600087803b15801561090757600080fd5b505af115801561091b573d6000803e3d6000fd5b505050506040513d602081101561093157600080fd5b81019080805190602001909291905050509050806109b7576040517f08c379a00000000000000000000000000000000000000000000000000000000081526004018080602001828103825260088152602001807f6e6f74207061737300000000000000000000000000000000000000000000000081525060200191505060405180910390fd5b6109bf610d3a565b818160000190151590811515815250508481602001818152505080600560003373ffffffffffffffffffffffffffffffffffffffff1673ffffffffffffffffffffffffffffffffffffffff16815260200190815260200160002060008e815260200190815260200160002060008201518160000160006101000a81548160ff02191690831515021790555060208201518160010155905050610a60336106fd565b15610b21576001600660003373ffffffffffffffffffffffffffffffffffffffff1673ffffffffffffffffffffffffffffffffffffffff16815260200190815260200160002060006101000a81548160ff0219169083151502179055506007339080600181540180825580915050600190039060005260206000200160009091909190916101000a81548173ffffffffffffffffffffffffffffffffffffffff021916908373ffffffffffffffffffffffffffffffffffffffff1602179055505b50505098975050505050505050565b60018181548110610b3d57fe5b906000526020600020016000915090505481565b60006004600083815260200190815260200160002060009054906101000a900473ffffffffffffffffffffffffffffffffffffffff169050919050565b600060036000838152602001908152602001600020549050919050565b60008054906101000a900473ffffffffffffffffffffffffffffffffffffffff1673ffffffffffffffffffffffffffffffffffffffff163373ffffffffffffffffffffffffffffffffffffffff1614610c0357600080fd5b600060026000868152602001908152602001600020600060028110610c2457fe5b0154148015610c535750600060026000868152602001908152602001600020600160028110610c4f57fe5b0154145b610c5c57600080fd5b60018490806001815401808255809150506001900390600052602060002001600090919091909150558260026000868152602001908152602001600020906002610ca7929190610d59565b50806003600086815260200190815260200160002081905550816004600086815260200190815260200160002060006101000a81548173ffffffffffffffffffffffffffffffffffffffff021916908373ffffffffffffffffffffffffffffffffffffffff16021790555050505050565b6040518060400160405280600290602082028036833780820191505090505090565b6040518060400160405280600015158152602001600080191681525090565b8260028101928215610d88579160200282015b82811115610d87578251825591602001919060010190610d6c565b5b509050610d959190610d99565b5090565b5b80821115610db2576000816000905550600101610d9a565b509056fea2646970667358221220360df486e16af4c5dd470f6c6c0c411afddbef3bab93d20c5113f99a5d5b62ae64736f6c634300060c0033",
  "immutableReferences": {},
  "source": "// SPDX-License-Identifier: QQ\r\npragma solidity >=0.5.3 <0.7.0;\r\n// pragma experimental ABIEncoderV2;\r\n\r\nimport \"./pedersenCommitment.sol\";\r\n\r\ncontract validate {\r\n    address owner;\r\n    // struct Rule{\r\n    //     bytes32 keyhash;\r\n    //     uint[2] commitment;\r\n    //     address AA;\r\n    // }\r\n    struct Proof {\r\n        uint[2] c2;\r\n        uint[2] c3;\r\n        uint[2] c4;\r\n        uint z1;\r\n        uint z2;\r\n        uint z3;\r\n    }\r\n    struct Result {\r\n        bool result;\r\n        bytes32 verifiableCredential;\r\n    }\r\n    bytes32[] public rulekeys;\r\n    mapping(bytes32 => uint[2]) rules;\r\n    mapping(bytes32 => uint) rulesR;\r\n    mapping(bytes32 => address) rulesAA;\r\n    // user -> key hash -> result;\r\n    mapping(address => mapping(bytes32 => Result)) result;\r\n    mapping(address => bool) pass;\r\n    address[] validUser;\r\n    constructor()public{\r\n        owner = msg.sender;\r\n    }\r\n    \r\n    modifier isOwner(){\r\n        require(msg.sender == owner);\r\n        _;\r\n    }\r\n    \r\n    function setValidateRule(bytes32 keyhash, uint[2]memory c1,address AA,uint r)isOwner public payable{\r\n        require(rules[keyhash][0]==0 && rules[keyhash][1]==0);\r\n        rulekeys.push(keyhash);\r\n        rules[keyhash] = c1;\r\n        rulesR[keyhash] = r;\r\n        rulesAA[keyhash] = AA;\r\n    }\r\n    \r\n    function checkAllPass(address user) public view returns(bool){\r\n        for (uint i = 0;i < rulekeys.length;i++){\r\n            bytes32 keyhash = rulekeys[i];\r\n            if(result[user][keyhash].result != true){\r\n                return false;\r\n            }\r\n        }\r\n        return true;\r\n    }\r\n    \r\n    function validateOneAttribute(bytes32 keyhash,uint[2] memory c2,uint[2] memory c3,uint[2] memory c4,uint z1,uint z2,uint z3,bytes32 vc)public payable returns(bool){\r\n        PedersenCommitment Check = PedersenCommitment(0xF944e6B6164a331134375b8dBAe6D33ACcfCfcc1);\r\n        bool r = Check.CommitmentEqualityProof(rules[keyhash],c2,c3,c4,z1,z2,z3);\r\n        require(r,\"not pass\");\r\n        Result memory temp;\r\n        temp.result = r;\r\n        temp.verifiableCredential = vc;\r\n        result[msg.sender][keyhash] = temp;\r\n        \r\n        if(checkAllPass(msg.sender)){\r\n            pass[msg.sender] = true;\r\n            validUser.push(msg.sender);\r\n        }\r\n    }\r\n    \r\n    function validUserLength()public view returns(uint){\r\n        return validUser.length;\r\n    }\r\n    \r\n    function viewValidList(uint startPos,uint querynum)public view returns(address[] memory returnList){\r\n        require(startPos >= 0);\r\n        require(startPos+querynum<=validUser.length);\r\n        for (uint i = startPos;i < validUser.length;i++){\r\n            returnList[i] = validUser[i];\r\n        }\r\n    }\r\n    \r\n    function viewRuleKeyList()public view returns(bytes32[] memory){\r\n        return rulekeys;\r\n    }\r\n    \r\n    function viewRuleCommitment(bytes32 keyhash)public view returns(uint[2] memory){\r\n        return rules[keyhash];\r\n    }\r\n    \r\n    function viewRuleAA(bytes32 keyhash)public view returns(address){\r\n        return rulesAA[keyhash];\r\n    }\r\n    \r\n    function viewRuleR(bytes32 keyhash)public view returns(uint){\r\n        return rulesR[keyhash];\r\n    }\r\n}",
  "sourcePath": "C:\\Users\\su tzu hsuan\\vincent\\SelectiveDisclosureCertification\\contracts\\validate.sol",
  "compiler": {
    "name": "solc",
    "version": "0.6.12+commit.27d51765.Emscripten.clang"
  },
  "schemaVersion": "3.4.3",
  "updatedAt": "2021-10-23T08:57:55.781Z",
  "devdoc": {
    "kind": "dev",
    "methods": {},
    "version": 1
  },
  "userdoc": {
    "kind": "user",
    "methods": {},
    "version": 1
  }
}